{
  "contractName": "MyToken",
  "abi": [
    {
      "inputs": [],
      "stateMutability": "nonpayable",
      "type": "constructor"
    },
    {
      "anonymous": false,
      "inputs": [
        {
          "indexed": true,
          "internalType": "address",
          "name": "",
          "type": "address"
        },
        {
          "indexed": true,
          "internalType": "address",
          "name": "",
          "type": "address"
        },
        {
          "indexed": false,
          "internalType": "uint256",
          "name": "",
          "type": "uint256"
        }
      ],
      "name": "Approve",
      "type": "event"
    },
    {
      "anonymous": false,
      "inputs": [
        {
          "indexed": true,
          "internalType": "address",
          "name": "",
          "type": "address"
        },
        {
          "indexed": true,
          "internalType": "address",
          "name": "",
          "type": "address"
        },
        {
          "indexed": false,
          "internalType": "uint256",
          "name": "",
          "type": "uint256"
        }
      ],
      "name": "Transfer",
      "type": "event"
    },
    {
      "inputs": [],
      "name": "getTotalSupply",
      "outputs": [
        {
          "internalType": "uint256",
          "name": "",
          "type": "uint256"
        }
      ],
      "stateMutability": "view",
      "type": "function",
      "constant": true
    },
    {
      "inputs": [],
      "name": "getName",
      "outputs": [
        {
          "internalType": "string",
          "name": "",
          "type": "string"
        }
      ],
      "stateMutability": "view",
      "type": "function",
      "constant": true
    },
    {
      "inputs": [],
      "name": "getSymbol",
      "outputs": [
        {
          "internalType": "string",
          "name": "",
          "type": "string"
        }
      ],
      "stateMutability": "view",
      "type": "function",
      "constant": true
    },
    {
      "inputs": [],
      "name": "getDecimal",
      "outputs": [
        {
          "internalType": "uint8",
          "name": "",
          "type": "uint8"
        }
      ],
      "stateMutability": "view",
      "type": "function",
      "constant": true
    },
    {
      "inputs": [
        {
          "internalType": "address",
          "name": "_user",
          "type": "address"
        }
      ],
      "name": "balanceOf",
      "outputs": [
        {
          "internalType": "uint256",
          "name": "",
          "type": "uint256"
        }
      ],
      "stateMutability": "view",
      "type": "function",
      "constant": true
    },
    {
      "inputs": [
        {
          "internalType": "address",
          "name": "_to",
          "type": "address"
        },
        {
          "internalType": "uint256",
          "name": "_value",
          "type": "uint256"
        }
      ],
      "name": "transfer",
      "outputs": [
        {
          "internalType": "bool",
          "name": "",
          "type": "bool"
        }
      ],
      "stateMutability": "nonpayable",
      "type": "function"
    },
    {
      "inputs": [
        {
          "internalType": "address",
          "name": "_owner",
          "type": "address"
        },
        {
          "internalType": "address",
          "name": "_spender",
          "type": "address"
        }
      ],
      "name": "getAllownce",
      "outputs": [
        {
          "internalType": "uint256",
          "name": "",
          "type": "uint256"
        }
      ],
      "stateMutability": "view",
      "type": "function",
      "constant": true
    },
    {
      "inputs": [
        {
          "internalType": "address",
          "name": "_sender",
          "type": "address"
        },
        {
          "internalType": "address",
          "name": "_to",
          "type": "address"
        },
        {
          "internalType": "uint256",
          "name": "_value",
          "type": "uint256"
        }
      ],
      "name": "transferFrom",
      "outputs": [
        {
          "internalType": "bool",
          "name": "",
          "type": "bool"
        }
      ],
      "stateMutability": "nonpayable",
      "type": "function"
    }
  ],
  "bytecode": "0x608060405234801561001057600080fd5b506040518060400160405280600b81526020017f46617268616e436f696e730000000000000000000000000000000000000000008152506000908051906020019061005c929190610114565b506040518060400160405280600381526020017f4652580000000000000000000000000000000000000000000000000000000000815250600190805190602001906100a8929190610114565b506127106002819055506012600360006101000a81548160ff021916908360ff16021790555033600360016101000a81548173ffffffffffffffffffffffffffffffffffffffff021916908373ffffffffffffffffffffffffffffffffffffffff1602179055506101bf565b828054600181600116156101000203166002900490600052602060002090601f01602090048101928261014a5760008555610191565b82601f1061016357805160ff1916838001178555610191565b82800160010185558215610191579182015b82811115610190578251825591602001919060010190610175565b5b50905061019e91906101a2565b5090565b5b808211156101bb5760008160009055506001016101a3565b5090565b610ba6806101ce6000396000f3fe608060405234801561001057600080fd5b50600436106100885760003560e01c806370a082311161005b57806370a0823114610238578063a9059cbb14610290578063c4e41b22146102f4578063fb91484c1461031257610088565b8063150704011461008d57806317d7de7c1461011057806323b872dd1461019357806334ce10c414610217575b600080fd5b61009561038a565b6040518080602001828103825283818151815260200191508051906020019080838360005b838110156100d55780820151818401526020810190506100ba565b50505050905090810190601f1680156101025780820380516001836020036101000a031916815260200191505b509250505060405180910390f35b61011861042c565b6040518080602001828103825283818151815260200191508051906020019080838360005b8381101561015857808201518184015260208101905061013d565b50505050905090810190601f1680156101855780820380516001836020036101000a031916815260200191505b509250505060405180910390f35b6101ff600480360360608110156101a957600080fd5b81019080803573ffffffffffffffffffffffffffffffffffffffff169060200190929190803573ffffffffffffffffffffffffffffffffffffffff169060200190929190803590602001909291905050506104ce565b60405180821515815260200191505060405180910390f35b61021f6106a6565b604051808260ff16815260200191505060405180910390f35b61027a6004803603602081101561024e57600080fd5b81019080803573ffffffffffffffffffffffffffffffffffffffff1690602001909291905050506106bd565b6040518082815260200191505060405180910390f35b6102dc600480360360408110156102a657600080fd5b81019080803573ffffffffffffffffffffffffffffffffffffffff16906020019092919080359060200190929190505050610706565b60405180821515815260200191505060405180910390f35b6102fc6108ff565b6040518082815260200191505060405180910390f35b6103746004803603604081101561032857600080fd5b81019080803573ffffffffffffffffffffffffffffffffffffffff169060200190929190803573ffffffffffffffffffffffffffffffffffffffff169060200190929190505050610909565b6040518082815260200191505060405180910390f35b606060018054600181600116156101000203166002900480601f0160208091040260200160405190810160405280929190818152602001828054600181600116156101000203166002900480156104225780601f106103f757610100808354040283529160200191610422565b820191906000526020600020905b81548152906001019060200180831161040557829003601f168201915b5050505050905090565b606060008054600181600116156101000203166002900480601f0160208091040260200160405190810160405280929190818152602001828054600181600116156101000203166002900480156104c45780601f10610499576101008083540402835291602001916104c4565b820191906000526020600020905b8154815290600101906020018083116104a757829003601f168201915b5050505050905090565b60008073ffffffffffffffffffffffffffffffffffffffff168373ffffffffffffffffffffffffffffffffffffffff161415610572576040517f08c379a00000000000000000000000000000000000000000000000000000000081526004018080602001828103825260198152602001807f496e76616c696420726563697069656e7420616464726573730000000000000081525060200191505060405180910390fd5b6000600560008673ffffffffffffffffffffffffffffffffffffffff1673ffffffffffffffffffffffffffffffffffffffff16815260200190815260200160002060003373ffffffffffffffffffffffffffffffffffffffff1673ffffffffffffffffffffffffffffffffffffffff16815260200190815260200160002054905082600460008773ffffffffffffffffffffffffffffffffffffffff1673ffffffffffffffffffffffffffffffffffffffff1681526020019081526020016000206000828254039250508190555082600460008673ffffffffffffffffffffffffffffffffffffffff1673ffffffffffffffffffffffffffffffffffffffff1681526020019081526020016000206000828254019250508190555061069933848303610990565b5060019150509392505050565b6000600360009054906101000a900460ff16905090565b6000600460008373ffffffffffffffffffffffffffffffffffffffff1673ffffffffffffffffffffffffffffffffffffffff168152602001908152602001600020549050919050565b60008073ffffffffffffffffffffffffffffffffffffffff168373ffffffffffffffffffffffffffffffffffffffff1614156107aa576040517f08c379a000000000000000000000000000000000000000000000000000000000815260040180806020018281038252600f8152602001807f496e76616c69642041646472657373000000000000000000000000000000000081525060200191505060405180910390fd5b600460003373ffffffffffffffffffffffffffffffffffffffff1673ffffffffffffffffffffffffffffffffffffffff168152602001908152602001600020548211156107f657600080fd5b81600460003373ffffffffffffffffffffffffffffffffffffffff1673ffffffffffffffffffffffffffffffffffffffff1681526020019081526020016000206000828254039250508190555081600460008573ffffffffffffffffffffffffffffffffffffffff1673ffffffffffffffffffffffffffffffffffffffff168152602001908152602001600020600082825401925050819055508273ffffffffffffffffffffffffffffffffffffffff163373ffffffffffffffffffffffffffffffffffffffff167fddf252ad1be2c89b69c2b068fc378daa952ba7f163c4a11628f55a4df523b3ef846040518082815260200191505060405180910390a36001905092915050565b6000600254905090565b6000600560008473ffffffffffffffffffffffffffffffffffffffff1673ffffffffffffffffffffffffffffffffffffffff16815260200190815260200160002060008373ffffffffffffffffffffffffffffffffffffffff1673ffffffffffffffffffffffffffffffffffffffff16815260200190815260200160002054905092915050565b60008073ffffffffffffffffffffffffffffffffffffffff168373ffffffffffffffffffffffffffffffffffffffff161415610a34576040517f08c379a00000000000000000000000000000000000000000000000000000000081526004018080602001828103825260128152602001807f4e6f742056616c6964204164647265737320000000000000000000000000000081525060200191505060405180910390fd5b600460003373ffffffffffffffffffffffffffffffffffffffff1673ffffffffffffffffffffffffffffffffffffffff16815260200190815260200160002054821115610a8057600080fd5b81600560003373ffffffffffffffffffffffffffffffffffffffff1673ffffffffffffffffffffffffffffffffffffffff16815260200190815260200160002060008573ffffffffffffffffffffffffffffffffffffffff1673ffffffffffffffffffffffffffffffffffffffff168152602001908152602001600020819055508273ffffffffffffffffffffffffffffffffffffffff163373ffffffffffffffffffffffffffffffffffffffff167f6e11fb1b7f119e3f2fa29896ef5fdf8b8a2d0d4df6fe90ba8668e7d8b2ffa25e846040518082815260200191505060405180910390a3600190509291505056fea264697066735822122035cf5ea37e224a25b1f37288d418a898d9abb87e3ffbff39a5342cb14b4d5b2964736f6c63430007040033",
  "immutableReferences": {},
  "source": "pragma solidity 0.7.4;\n\ncontract MyToken{\n    \n    string private name;\n    string private symbol;\n    uint256 private total_supply;\n    uint8 private decimal;\n    address owner;\n    \n    mapping (address => uint) private balances;\n    mapping (address => mapping(address => uint)) private allownce;\n    \n    event Transfer(address indexed, address indexed , uint256 );\n    event Approve(address indexed, address indexed, uint256 );\n    \n    constructor()  {\n        name=\"FarhanCoins\";\n        symbol=\"FRX\";\n        total_supply=10000;\n        decimal=18;\n        owner=msg.sender;\n    }\n    \n    function getTotalSupply() public view returns(uint256){\n        return total_supply;\n    }\n    \n    function getName() public view returns(string memory){\n        return name;\n    }\n    \n    function getSymbol() public view returns(string memory){\n        return symbol;\n    }\n    function getDecimal() public view returns(uint8){\n        return decimal;\n    }\n    \n    function balanceOf(address _user) public view returns(uint256){\n        return balances[_user];\n    }\n    \n    function transfer(address _to, uint256 _value) public returns(bool){\n        require(_to!=address(0),\"Invalid Address\");\n        require(_value<=balances[msg.sender]);\n        balances[msg.sender]-=_value;\n        balances[_to]+=_value;\n        emit Transfer(msg.sender,_to,_value);\n        return true;\n    }\n    \n    function approve(address spender, uint256 amount) private returns(bool){\n        require(spender!=address(0),\"Not Valid Address \");\n        require(amount<=balances[msg.sender]);\n        allownce[msg.sender][spender]=amount;\n        emit Approve(msg.sender,spender,amount);\n        return true;\n    }\n    \n    function getAllownce(address _owner, address _spender) public view returns(uint256){\n        return allownce[_owner][_spender];\n    }\n    \n    function transferFrom(address _sender, address _to, uint256 _value) public returns(bool){\n        require(_to!=address(0),\"Invalid recipient address\");\n        uint currentallownce=allownce[_sender][msg.sender];\n        balances[_sender]-=_value;\n        balances[_to]+=_value;\n        approve(msg.sender,(currentallownce-_value));\n        return true;\n        \n    }\n    \n}\n",
  "sourcePath": "/home/farhan_ali/Desktop/test/contracts/MyToken.sol",
  "compiler": {
    "name": "solc",
    "version": "0.7.4+commit.3f05b770.Emscripten.clang"
  },
  "schemaVersion": "3.3.4",
  "updatedAt": "2021-02-17T15:44:46.480Z",
  "networkType": "ethereum",
  "devdoc": {
    "kind": "dev",
    "methods": {},
    "version": 1
  },
  "userdoc": {
    "kind": "user",
    "methods": {},
    "version": 1
  }
}